S01500005369676964612E52756E5365672E737265633C
S113000012C022C021C020C01FC01EC01DC01CC001
S11300101BC01AC019C018C017C016C015C014C020
S113002013C012C011C011241FBECFEDCDBF10E00C
S1130030A0E6B0E0E2EEF0E002C005900D92AE362C
S1130040B107D9F702D04BC0DBCFCF93DF93CDB745
S1130050DD27C750CDBF18BA8FEF87BB82BB11BA5B
S11300609E01275F3F4F80991DC087EA91E6019763
S1130070F1F700C0000087E0E0E6F0E0DE01119651
S113008001900D928A95E1F7FE013196819188BB2A
S113009083ED90E30197F1F700C000002E173F07AE
S11300A0A9F7E1CF87EA91E60197F1F700C00000D4
S11300B087E0E7E6F0E0DE01119601900D928A9563
S11300C0E1F7FE013196819188BB83ED90E30197BE
S11300D0F1F700C00000E217F307A9F7C4CFF894C2
S10500E0FFCF4C
S11100E201020408102001012010080402018C
S9030000FC
